:100000000C9463000C948B000C948B000C948B006C
:100010000C948B000C948B000C948B000C948B0034
:100020000C948B000C948B000C948B000C948B0024
:100030000C948B000C948B000C948B000C948B0014
:100040000C9428060C948B000C94FB080C943E092D
:100050000C948B000C948B000C948B000C948B00F4
:100060000C948B000C948B00000000070002010030
:100070000003040600000000000000000102040864
:100080001020408001020408102001020408102002
:10009000040404040404040402020202020203032E
:1000A0000303030300000000250028002B000000CC
:1000B0000000240027002A007A056D077909B80B93
:1000C000370D6E13C71311241FBECFEFD8E0DEBF6C
:1000D000CDBF12E0A0E0B1E0E4EBFFE202C005908A
:1000E0000D92A030B107D9F713E0A0E0B2E001C053
:1000F0001D92A231B107E1F710E0C6ECD0E004C0D8
:100100002297FE010E94AD16C83BD107C9F70E9495
:100110007C070C94D8170C940000CF93DF93EC016C
:1001200088819981DC01ED91FC910480F581E02DBD
:100130000995892BA9F388819981DC01ED91FC91C6
:100140000680F781E02D0995DF91CF910895AF9258
:10015000BF92CF92DF92EF92FF920F931F93CF93B4
:10016000DF938C016B010E948D00F8018283E12CEA
:10017000F12CBB24B394C1E0D0E0C8010E948D00F3
:100180002196F801EC0FFD1F8183982F9F779B9D8F
:10019000E00CF11C1124B794BB24B79487FDEDCF7C
:1001A0008C2F8150F6018083C12CD12CCE14DF041A
:1001B000C1F0C038D10560F45E01FFEFAF1ABF0A8D
:1001C000C8010E948D00C00FD11F8A83E50105C0C0
:1001D000C8010E948D00C0E0D0E08FEFC81AD80A95
:1001E000E5CFCE01DF91CF911F910F91FF90EF905E
:1001F000DF90CF90BF90AF900895AF92BF92CF9213
:10020000DF92EF92FF920F931F93CF93DF9300D073
:1002100000D0CDB7DEB77C01822FE0E0982F9F772A
:10022000881F8827881F09F09068A1E0B0E0AC0F14
:10023000BD1FAE0FB11D9C93EF5F8111EFCFAE2EAE
:10024000B12CDA01AA19BB0914966C93BE016F5F39
:100250007F4F80E090E04A195B098A159B0554F4B2
:10026000FB01D190BF018A01080F191FF801D58247
:100270000196F3CFF7018081918189010F5F1F4FB4
:100280000A0D1B1DFC0120813181F901228133817E
:10029000A801BD01F90109956C010E947206F701E0
:1002A000EC57FF4F6083718382839383DD2481E069
:1002B000C016D10609F080E00F900F900F900F90BC
:1002C000DF91CF911F910F91FF90EF90DF90CF9032
:1002D000BF90AF900895C9010296DB01FD01E61BB6
:1002E000F70B2D91222331F0FA01E80FF91F20833B
:1002F0000196F4CF9C012E1B3F0B240F351FD90113
:100300001297FC93D9011197EC9308951F93CF9303
:10031000DF93EC01888199810097A1F0DC01ED91D8
:10032000FC910488F589E02D0995182F81110BC0E7
:1003300088819981DC01ED91FC910288F389E02D9F
:10034000099501C010E0812FDF91CF911F91089591
:100350002F923F924F925F926F927F928F929F92D5
:10036000AF92BF92CF92EF92FF920F931F93CF93D2
:10037000DF93CDB7DEB72E970FB6F894DEBF0FBE72
:10038000CDBF4C011B012A0139010E948601811158
:1003900002C1F401EF56FF4F60817181F401A08129
:1003A000B181C4018D569F4F6115710561F02D918A
:1003B0003C911197FC0140815181F90126853785D7
:1003C000CD01F9011EC0ED91FC91248535853C8756
:1003D0002B87DC014D915C91F401E157FF4F608167
:1003E0007181CE0101964D875E870E9452074D852F
:1003F0005E85BE016F5F7F4FF40180819181EB8547
:10040000FC850995892B09F4BCC081E090E0F401DA
:10041000EE57FF4F9183808389E0E2E1F1E0DE0156
:10042000119601900D928A95E1F7FE01319680E0D8
:1004300090E02191D401A80FB91F17962C93019633
:1004400089309105B1F70115110559F0F0E2CF9E01
:10045000C0011124866028E0E29E700111248E29DB
:1004600001C082E04114510431F06114710411F4AF
:10047000806801C0806CD40150968C93509751963F
:100480001C9251978FE052968C937401B2E0EB0E60
:10049000F11C21E130E0A701B101C4010E946B0110
:1004A0000115110561F09C01A701B801C4010E946A
:1004B0006B019C01A701B501C4010E946B014114AD
:1004C000510479F09C01A701B201C4010E946B01A3
:1004D0006114710431F09C01A701B301C4010E94B1
:1004E0006B019C0125503109A70160E1C4010E9404
:1004F000FD000E947206F401EC57FF4F6083718388
:1005000082839383840108571F4FF80160837183AE
:1005100082839383F40180819181DC01ED91FC91D0
:100520000480F581E02D0995892B89F40E947206DB
:10053000D8014D905D906D907C9064197509860985
:10054000970969397A438105910520F31AC0BE01E4
:10055000665F7F4FC4010E94A700049791F4F401E5
:10056000858181110EC00E947206D8016D937D9322
:100570008D939C931397F401E457FF4F108281E011
:100580000BC0F40180819181DC01ED91FC91028826
:10059000F389E02D099580E02E960FB6F894DEBF22
:1005A0000FBECDBFDF91CF911F910F91FF90EF90C4
:1005B000CF90BF90AF909F908F907F906F905F9003
:1005C0004F903F902F900895AF92BF92CF92EF92AD
:1005D0000F931F93A12CB12CC12CE12C00E010E053
:1005E00020E030E040E050E00E94A8011F910F9110
:1005F000EF90CF90BF90AF9008954F925F926F921F
:100600007F928F929F92AF92BF92CF92DF92EF92A2
:10061000FF920F931F93CF93DF931F92CDB7DEB757
:100620008C016DB67EB60E948601882309F4F2C063
:100630000E9472064B015C01780128E8E20EF11C71
:10064000F70180819181A281B381A5019401281BCA
:10065000390B4A0B5B0BDA01C90189399A43A105B1
:10066000B105A0F4F801EC57FF4F80819181A28180
:10067000B381A5019401281B390B4A0B5B0BDA01EE
:10068000C90189399A43A105B10590F168014CE887
:10069000C40ED11CD6012C91F801808191812223B6
:1006A00041F0DC01ED91FC910288F389E02D099580
:1006B000B1C020ECF80122831382DC01ED91FC91A2
:1006C0000280F381E02D42E050E0B8016E5F7F4F81
:1006D0000995F801EC57FF4F80829182A282B38284
:1006E000F70180829182A282B38281E0D6018C934D
:1006F000F80180819181DC01ED91FC910480F5810C
:10070000E02D0995892B09F487C0BE016F5F7F4FEB
:10071000C8010E94A700DC01009709F47DC0F70121
:1007200080829182A282B382F8018281807F8033AD
:1007300009F055C02801FDE84F0E511CF2018081DF
:100740009181892B09F468C08DB69EB6698170E0ED
:100750005801A60EB71EF501438150E0542F4427DF
:100760008481480F511DCA0101962DB73EB7281B41
:10077000390B0FB6F8943EBF0FBE2DBF8DB79EB795
:1007800001967C0120E030E02417350759F065011F
:10079000C20ED31EF601D580F701D1927F012F5FE3
:1007A0003F4FF2CFAC01420F531FFA0110824DEFC1
:1007B0005FEF461B570B421B530B4A0F5B1F620F29
:1007C000731F6B5F7F4F600F711FD201ED91FC9122
:1007D00009950FB6F8949EBE0FBE8DBE1DC0803C1D
:1007E00091F480EDF80182831382D8018D919D915F
:1007F000BD01DC01ED91FC910280F381E02D42E02E
:1008000050E0099509C0803D39F4F801E457FF4FE5
:10081000108202C080E001C081E00FB6F8947EBE75
:100820000FBE6DBE0F90DF91CF911F910F91FF9082
:10083000EF90DF90CF90BF90AF909F908F907F9080
:100840006F905F904F9008958F929F92BF92CF923A
:10085000DF92EF92FF920F931F93CF93DF9300D01D
:10086000CDB7DEB74C01B42E152F790169837A8399
:100870000E94860169817A818823C1F1640182E046
:10088000C80ED11C25E030E0A601C4010E946B0116
:10089000EB2DF12F60E070E09401280F391F6E15E9
:1008A0007F0549F04191D901A60FB71F12964C93CD
:1008B0006F5F7F4FF4CF011102C060E301C061E3BD
:1008C000970125503109280F391FA601C4010F9047
:1008D0000F90DF91CF911F910F91FF90EF90DF90DC
:1008E000CF90BF909F908F900C94FD0080E00F9070
:1008F0000F90DF91CF911F910F91FF90EF90DF90BC
:10090000CF90BF909F908F9008950F93FA01019020
:100910000020E9F79F0121503109241B350B00E02D
:100920000E9424040F910895EF92FF920F931F935A
:10093000CF93DF9300D0CDB7DEB77C0169837A8394
:100940000E94860169817A81882369F1F701EE5757
:10095000FF4F80819181019611F481E090E09183B5
:10096000808380819181F7019783808787010E5F63
:100970001F4F27E030E0A801C7010E946B01F7017B
:10098000E80FF91F12829C0124503109A80162E886
:10099000C7010F900F90DF91CF911F910F91FF90A2
:1009A000EF900C94FD0080E00F900F90DF91CF91BD
:1009B0001F910F91FF90EF900895CF93DF93C82F71
:1009C000D62F61E00E94B9056CE271E080E090E012
:1009D0000E94A1066D2F8C2FDF91CF910C94F20510
:1009E000FB0180818C3651F44BE151E062E571E00E
:1009F00080910002909101020C94850461E0818154
:100A0000863609F060E082E090E00C94DD04CF933C
:100A1000DF9300D000D000D0CDB7DEB785E990E0FD
:100A20000E94610822E032E0FC0131832083E35719
:100A3000FF4F20EF34E031832083FC01E157FF4F6B
:100A400026E031E031832083FC01ED56FF4F2BE59A
:100A500037E031832083FC01EF56FF4F1182108273
:100A600090930102809300028DEA91E09A8389833A
:100A70008091110290911202A0911302B091140280
:100A80008B839C83AD83BE83AE014F5F5F4F6AE073
:100A900071E08AED92E00E94E90C60E771E08091DC
:100AA0000002909101020E94E4026BE771E08091E4
:100AB0000002909101020E9494046BE871E0809121
:100AC0000002909101020E94940462EA71E08AE2BD
:100AD00092E00E94E20726960FB6F894DEBF0FBEA2
:100AE000CDBFDF91CF9108958091000290910102D6
:100AF0000C94FD020F9300E020E040E060E085E10F
:100B000092E00E94460701EB20E048EA60EC8FE0AB
:100B100092E00E94460782E092E00F910C94C80A8E
:100B2000833081F028F4813099F08230A1F008956B
:100B30008630A9F08730B9F08430D1F480918000FC
:100B40008F7D03C0809180008F778093800008950F
:100B500084B58F7702C084B58F7D84BD0895809160
:100B6000B0008F7703C08091B0008F7D8093B0007C
:100B70000895CF93DF9390E0FC01E458FF4F249158
:100B8000FC01E057FF4F8491882349F190E0880FE2
:100B9000991FFC01E255FF4FA591B4918C559F4FD1
:100BA000FC01C591D4919FB7611108C0F8948C9154
:100BB000209582238C93888182230AC0623051F46D
:100BC000F8948C91322F309583238C938881822BDB
:100BD000888304C0F8948C91822B8C939FBFDF9103
:100BE000CF9108950F931F93CF93DF931F92CDB7AB
:100BF000DEB7282F30E0F901E859FF4F8491F90161
:100C0000E458FF4F1491F901E057FF4F049100237E
:100C1000C9F0882321F069830E9490056981E02F43
:100C2000F0E0EE0FFF1FEC55FF4FA591B4919FB779
:100C3000F8948C91611103C01095812301C0812B20
:100C40008C939FBF0F90DF91CF911F910F910895CB
:100C50001F920F920FB60F9211242F933F938F93F1
:100C60009F93AF93BF9380911C0290911D02A0911E
:100C70001E02B0911F0230911B0223E0230F2D377B
:100C800020F40196A11DB11D05C026E8230F029690
:100C9000A11DB11D20931B0280931C0290931D0285
:100CA000A0931E02B0931F02809120029091210216
:100CB000A0912202B09123020196A11DB11D809343
:100CC000200290932102A0932202B0932302BF91AD
:100CD000AF919F918F913F912F910F900FBE0F90E9
:100CE0001F9018952FB7F89460911C0270911D0207
:100CF00080911E0290911F022FBF08953FB7F89474
:100D00008091200290912102A0912202B0912302B1
:100D100026B5A89B05C02F3F19F00196A11DB11D56
:100D20003FBF6627782F892F9A2F620F711D811D73
:100D3000911D42E0660F771F881F991F4A95D1F7D2
:100D40000895CF92DF92EF92FF92CF93DF936B01E2
:100D50007C010E947E06EB01C114D104E104F10480
:100D600079F00E947E066C1B7D0B683E7340A0F3F9
:100D700081E0C81AD108E108F108C851DC4FECCF76
:100D8000DF91CF91FF90EF90DF90CF90089578940E
:100D900084B5826084BD84B5816084BD85B5826080
:100DA00085BD85B5816085BDEEE6F0E0808181601E
:100DB0008083E1E8F0E0108280818260808380811E
:100DC00081608083E0E8F0E0808181608083E1EBF6
:100DD000F0E0808184608083E0EBF0E080818160DE
:100DE0008083EAE7F0E08081846080838081826094
:100DF000808380818160808380818068808310927D
:100E0000C1000895AF92BF92CF92DF92EF92FF920E
:100E10000F931F93CF93DF936C017B01C0E0D0E071
:100E200000E010E0F601EC0FFD1F4AE050E06281A7
:100E3000C7010E945A085C016EE2C7010E94C70701
:100E40008A0D9B1D080F191F2196C330D10551F73C
:100E50004AE050E0F6016581C7010E945A08800F00
:100E6000911FDF91CF911F910F91FF90EF90DF9035
:100E7000CF90BF90AF9008952DEA31E0FC0131830F
:100E80002083128213821482158208950F93FC012D
:100E90008DEA91E091838083628343832483058379
:100EA0000F9108952DEA31E0FC0131832083FB018D
:100EB0004081518162817381FC0142835383648349
:100EC00075830895FB014081518162817381FC012A
:100ED000428353836483758308958DEA91E09093F0
:100EE000250280932402109226021092270210926B
:100EF00028021092290208950E94C7060E94070541
:100F0000C5E3D9E00E9474052097E1F30E943509FA
:100F1000F9CFCF92DF92EF92FF920F931F93CF936F
:100F2000DF936C017A01EB01E60EF71E00E010E0A2
:100F3000CE15DF0561F06991D601ED91FC9101902C
:100F4000F081E02DC6010995080F191FF1CFC801E6
:100F5000DF91CF911F910F91FF90EF90DF90CF9095
:100F600008956115710581F0DB010D900020E9F70E
:100F7000AD0141505109461B570BDC01ED91FC912D
:100F80000280F381E02D099480E090E00895DC0177
:100F9000ED91FC910190F081E02D09940F931F9346
:100FA000CF93DF93EC016DE00E94C7078C016AE0EC
:100FB000CE010E94C707800F911FDF91CF911F9133
:100FC0000F9108950F931F93CF93DF93EC010E942D
:100FD000B1078C01CE010E94CE07800F911FDF91D7
:100FE000CF911F910F9108958F929F92AF92BF92D0
:100FF000CF92DF92EF92FF920F931F93CF93DF93E5
:10100000CDB7DEB7A1970FB6F894DEBF0FBECDBF48
:101010007C01C42EE52FCB01D22E19A221E02D1583
:1010200010F02AE0D22E8E010F5D1F4F8D2C912CD7
:10103000A12CB12C6C2D7E2FA50194010E94891644
:101040008C2DD29E80191124015011098A3014F47C
:10105000805D01C0895CF80180832115310541055F
:10106000510521F0C22EE32FCA01E4CFB801C70118
:101070000E94B107A1960FB6F894DEBF0FBECDBF98
:10108000DF91CF911F910F91FF90EF90DF90CF9064
:10109000BF90AF909F908F9008952115310541F436
:1010A000DC01ED91FC910190F081E02D642F099419
:1010B0000C94F4079A01462F50E060E070E00C9425
:1010C0004D080C94B116FC0124853585F901E05CCE
:1010D000FF4F80819181F901EE5BFF4F20813181CB
:1010E000821B930B8F7399270895FC018485958546
:1010F000FC01E05CFF4F40815181FC01EE5BFF4F42
:10110000208131814217530741F00190F081E02D99
:10111000E80FF91F808190E008958FEF9FEF089509
:10112000FC0184859585FC01E05CFF4F4081518185
:10113000FC01EE5BFF4F208131814217530779F0AC
:10114000A081B181A80FB91F8C91208131812F5FBF
:101150003F4F2F7333273183208390E008958FEF23
:101160009FEF0895FC0181A1882329F0A489B58906
:101170008C9186FFFBCF11A20895CF93DF93FC01E2
:1011800026853785D901A05CBF4F8D919C91119721
:1011900001968F739927E901CE5BDF4F4881598112
:1011A00084179507D9F30D90BC91A02DA20FB31F02
:1011B0006C93A685B785A05CBF4F11969C938E93C8
:1011C000A689B7892C9181E090E0078C02C0880F36
:1011D000991F0A94E2F7282B2C9381E081A30488BD
:1011E000F589E02D80818064808381E090E0DF914B
:1011F000CF91089508951F920F920FB60F92112468
:101200002F933F934F938F939F93EF93FF938091EF
:10121000C00082FD1CC04091C6008091D002909118
:10122000D10201968F7399272091D2023091D30277
:101230008217930771F0E091D002F091D102E0574C
:10124000FD4F40839093D1028093D00202C08091E1
:10125000C600FF91EF919F918F914F913F912F91F8
:101260000F900FBE0F901F9018958AE292E00E9497
:101270006308892B11F00C94FA0808951F920F92BD
:101280000FB60F9211242F933F938F939F93EF9359
:10129000FF9320918C0230918D0280918E0290916B
:1012A0008F022817390731F48091C1008F7D809318
:1012B000C10014C0E0918E02F0918F02E45BFD4FFB
:1012C000208180918E0290918F0201968F739927D1
:1012D00090938F0280938E022093C600FF91EF912E
:1012E0009F918F913F912F910F900FBE0F901F9064
:1012F000189510922D0210922C0288EE93E0A0E037
:10130000B0E080932E0290932F02A0933002B0930E
:10131000310283EB91E090932B0280932A0280E9C3
:1013200092E090933702809336028CE492E090939F
:1013300039028093380285EC90E090933B028093D1
:101340003A0284EC90E090933D0280933C0280EC62
:1013500090E090933F0280933E0281EC90E0909366
:1013600041028093400282EC90E09093430280938C
:10137000420286EC90E0909345028093440284E020
:101380008093460283E08093470287E0809348027F
:1013900085E08093490281E080934A020895CF93CB
:1013A000DF931F92CDB7DEB76983DC01ED91FC912D
:1013B0000280F381E02D41E050E0BE016F5F7F4F7E
:1013C00009950F90DF91CF910895CF93DF93EC01B2
:1013D000E881F9810480F581E02DCE010995892B02
:1013E00041F0E881F9810680F781E02DCE01099571
:1013F000EFCFDF91CF91089521E0FC018485843007
:1014000009F420E0822F08950F931F93CF93DF9369
:10141000EC018A018C85843021F00E947C10892B9C
:1014200039F481E090E09B838A8380E090E001C002
:10143000C801DF91CF911F910F910895FC01648540
:10144000643021F080EF92E00C94600E80E090E038
:101450000895CF93DF931F92CDB7DEB741E050E000
:10146000BE016F5F7F4FFC0184850E94CE1018166D
:1014700019061CF4898190E002C08FEF9FEF0F9056
:10148000DF91CF910895FC0184850C94CE100F93C9
:101490001F93CF93DF931F92CDB7DEB78C01DC0192
:1014A000ED91FC910480F581E02D0995892B51F097
:1014B000BE016F5F7F4FF80184850E941211898100
:1014C00090E002C08FEF9FEF0F90DF91CF911F91BF
:1014D0000F910895CF92DF92EF92FF920F931F9397
:1014E000CF93DF93CDB7DEB7AF970FB6F894DEBFDB
:1014F0000FBECDBF7C018B016A01CE0101960E9417
:101500003C07CE0109960E94FB12CE018A960E94EA
:101510003C076AED72E0CE0184960E94270DBE0161
:101520006C5D7F4FCE0101960E947913AE01465D3E
:101530005F4FB801CE0101960E94DE158130910502
:10154000C1F4D701ED91FC910484F585E02D8DEA7D
:1015500091E09DA38CA30CA51DA52EA53FA50EA3D0
:101560001FA328A739A7A601BE016C5D7F4FC70145
:101570000995AF960FB6F894DEBF0FBECDBFDF91D1
:10158000CF911F910F91FF90EF90DF90CF90089532
:10159000FC011382128248EE53E060E070E0448365
:1015A00055836683778383EC91E09183808384E025
:1015B00084870895FC018485843039F090E0982F69
:1015C00088278D5F9B4F0C94EA0D80E00895AF92C1
:1015D000BF92CF92DF92EF92FF920F931F93CF9320
:1015E000DF93EC015B016A018C85843009F04EC009
:1015F00033E0E32E34E0F32E00E010E0C7010E9458
:10160000EA0D811102C00C8709C08B7F8831D9F3A4
:101610000F5F1F4FF3940430110581F78C858430E0
:10162000A9F120911001309111012F5F3F4F211539
:10163000310511F420E034E03093110120931001C2
:10164000409110015091110120E061E00E94FF0FD4
:10165000B5016E5F7F4FA6018C850E943F108111FE
:1016600003C084E08C8712C0CE010E94DA0A873161
:1016700051F061E070E080E090E00E94A106CE01B0
:101680000E94DA0AECCF81E090E002C080E090E0B6
:10169000DF91CF911F910F91FF90EF90DF90CF904E
:1016A000BF90AF900895CF92DF92EF92FF92CF93C9
:1016B000DF93EC018C85843081F10E9475100E94CB
:1016C00072066B017C01CE010E94DA0A882359F070
:1016D0000E9472066C197D098E099F09683E73404D
:1016E0008105910598F0CE010E94DA0A882319F04D
:1016F0008C850E94F10FEC85F0E0EE0FFF1FEE519C
:10170000FD4F1182108284E08C8707C061E070E099
:1017100080E090E00E94A106D6CFDF91CF91FF90AC
:10172000EF90DF90CF900895CF93DF93EC018C85FD
:101730008430D1F0CE010E94DA0A8431A9F08823E6
:1017400099F0883189F08C3169F4E881F98104805D
:10175000F581E02DCE01099521E0892B09F420E0E7
:10176000822F03C081E001C080E0DF91CF91089516
:101770000F9300E020E040E060E084ED92E00E9402
:1017800046070F91089544E050E0BC0181E090E0ED
:101790000C94BB0D44E050E0BC0185E090E00C945B
:1017A000BB0D44E050E0BC018FE090E00C94BB0D19
:1017B0008F929F92AF92BF92CF92DF92EF92FF9261
:1017C0000F931F93CF93DF9300D0CDB7DEB74C01BB
:1017D0006A01590180EF92E069837A830E94710D5A
:1017E00046E050E069817A8189E090E00E94BB0D7B
:1017F000C60102960E94D10BC80102960E94C30B3B
:10180000C70102960E94CA0BF5014281538164818F
:101810007581F40142835383648375830F900F9025
:10182000DF91CF911F910F91FF90EF90DF90CF90BC
:10183000BF90AF909F908F9008956F927F928F92FC
:101840009F92AF92BF92CF92DF92EF92FF920F934F
:101850001F93CF93DF93CDB7DEB76E970FB6F89493
:10186000DEBF0FBECDBF6C015B017A0149013801BB
:1018700000E02FEF4FEF6FEFCE0149960E94460731
:101880002DEA31E03A8329838B8D9C8DAD8DBE8D01
:101890008B839C83AD83BE8338872F83F301828142
:1018A0009381A481B58189879A87AB87BC873E875E
:1018B0002D87F40182819381A481B5818F87988BD4
:1018C000A98BBA8B3C8B2B8BF701428153816481AE
:1018D00075814D8B5E8B6F8B788FCE0101967C016D
:1018E0008E01095F1F4F9E01235F3F4FAE014D5E8A
:1018F0005F4FB501C6010E94D80B6E960FB6F894E3
:10190000DEBF0FBECDBFDF91CF911F910F91FF9032
:10191000EF90DF90CF90BF90AF909F908F907F908F
:101920006F900895CF92DF92EF92FF920F931F93E3
:10193000CF93DF93CDB7DEB768970FB6F894DEBFCD
:101940000FBECDBF6B017901DA0112964D915D9109
:101950006D917C9115974D8B5E8B6F8B788FADEA77
:10196000B1E0BA83A98321E0288F0D891E892F89D0
:10197000388D0B831C832D833E83B887AF83F7019B
:10198000028113812481358109871A872B873C873F
:10199000BE87AD874F87588B698B7A8B8E010F5F1F
:1019A0001F4F9E01295F3F4FAE01435F5F4FB6015E
:1019B0000E941D0C68960FB6F894DEBF0FBECDBF17
:1019C000DF91CF911F910F91FF90EF90DF90CF901B
:1019D00008950F931F93CF93DF93CDB7DEB7629730
:1019E0000FB6F894DEBF0FBECDBFDB01FA01428116
:1019F0005381648175814F87588B698B7A8BEDEAAF
:101A0000F1E0FA83E98321E02A8B0F85188929897F
:101A10003A890B831C832D833E83F887EF834987A4
:101A20005A876B877C879E012F5F3F4FAE01495FCE
:101A30005F4FBD010E94920C62960FB6F894DEBF14
:101A40000FBECDBFDF91CF911F910F9108952DEA69
:101A500031E0FC0131832083FB01428153816481A9
:101A60007581FC01428353836483758308950F93CA
:101A700000E020E040E060E08AEE92E00E9446074D
:101A80008AED92E00F910C943C078EBD0DB407FED9
:101A9000FDCF8EB508952A9808952A9A08951F9328
:101AA000CF93DF9300D0CDB7DEB7182F6A83998329
:101AB0000E944B0D80EF0E94450D9981892F0E9455
:101AC000450D812F0E94450D6A81862F0E94450D8C
:101AD0000E944D0D81E00F900F90DF91CF911F91EB
:101AE0000895CF93DF93EC016CE271E080E090E029
:101AF0000E94A1060E947316229A60E880E090E09E
:101B00000E944F0D65E58BE190E00E944F0D65E569
:101B10008AE190E00E944F0D80E090E499838883F1
:101B200080E090E69987888780E098E49B838A83A9
:101B300080E098E69B878A8780E090E59D838C8390
:101B400080E090E79D878C8780E098E59F838E8377
:101B500080E098E79F878E87DF91CF910895FB0102
:101B6000282F30E02C5F3F4F922F8827642F8E0F55
:101B70009F1F0C944F0DCF92DF92EF92FF920F9325
:101B80001F93CF93DF93EC017A018B016C01C40E9C
:101B9000D51ECC15DD05A1F00E944B0D80EF0E94F3
:101BA000450D8D2F0E94450D8C2F0E94450D2196CD
:101BB000F80181918F010E94450D0E944D0DE9CFE2
:101BC000C701DF91CF911F910F91FF90EF90DF90B0
:101BD000CF9008951F93CF93DF931F92CDB7DEB7B9
:101BE000182F99830E944B0D8FE00E94450D99811B
:101BF000892F0E94450D812F0E94450D80E00E9493
:101C0000450D89830E944D0D89810F90DF91CF9101
:101C10001F910895282F30E02C5F3F4F922F882787
:101C2000860F971F0C94EA0D1F93CF93DF93182F05
:101C300060E270E00E940A0EC82FD0E061E270E01E
:101C4000812F0E940A0EDC2FCC279E01282BC90170
:101C5000DF91CF911F910895FF920F931F93CF9320
:101C6000DF93F62EC0E0D0E08F2D0E94140E8C0181
:101C7000009721F08F2D0E94140EEC01C017D107A0
:101C800099F7CE01DF91CF911F910F91FF900895A9
:101C90001F93CF93DF93182F66E270E00E940A0E25
:101CA000C82FD0E067E270E0812F0E940A0EDC2F7F
:101CB000CC279E01282BC901DF91CF911F91089558
:101CC000FF920F931F93CF93DF93F62EC0E0D0E0E7
:101CD0008F2D0E94480E8C01009721F08F2D0E94BD
:101CE000480EEC01C017D10799F7CE01DF91CF91D3
:101CF0001F910F91FF9008956F927F929F92AF92E4
:101D0000BF92CF92DF92EF92FF920F931F93CF93E8
:101D1000DF931F92CDB7DEB7D82E962E3A01590128
:101D200064E270E0892D99830E940A0EE82EF12C5E
:101D300065E270E0892D0E940A0EFE2CEE24E82A4E
:101D4000E60CF71C970137706D2C9981792E690C80
:101D5000711C690C711CD301ED91FC91E20FF31F12
:101D6000C901800F911F81309840A0F0C12C48E03C
:101D7000D42EC21AD30AA601B501CF010E94BB0D11
:101D8000A8014C195D09B5016C0D7D1DF301808121
:101D9000918103C0A801B501CF010E94BB0DE00EE7
:101DA000F11E4F2D64E270E0892D0E94AF0D4E2D83
:101DB00065E270E0892D0F90DF91CF911F910F9117
:101DC000FF90EF90DF90CF90BF90AF909F907F906B
:101DD0006F900C94AF0D0F931F9389019A0140E00F
:101DE00050E00E947C0E1F910F910895CF92DF92D8
:101DF000EF92FF920F931F93CF93DF93EC017A0141
:101E00008B016C01C40ED51ECC15DD05A9F00E9416
:101E10004B0D8FE00E94450D8D2F0E94450D8C2F9C
:101E20000E94450D219680E00E94450DF8018193A6
:101E30008F010E944D0DE8CFC701DF91CF911F9117
:101E40000F91FF90EF90DF90CF900895CF92DF92A7
:101E5000EF92FF920F931F93CF93DF936901577017
:101E6000EC01C60FD11DC60FD11D88859985840F41
:101E7000951F9A01200F311F2130384090F0E12C3E
:101E800068E0F62EE41AF50AA701B6010E94F60EE4
:101E9000A8014E195F09B6016E0D7F1D88859985D1
:101EA00002C0A801B601DF91CF911F910F91FF9061
:101EB000EF90DF90CF900C94F60E8F929F92AF929E
:101EC000BF92CF92DF92EF92FF920F931F93CF9327
:101ED000DF936C01962E5A017901802E68E270E042
:101EE000892D0E940A0EC82FD0E069E270E0892D8A
:101EF0000E940A0EDC2FCC27C82B87019501AE016A
:101F0000692DC6010E94260F81101AC0CE0DDF1D5B
:101F10004D2F68E270E0892D0E94AF0D4C2F69E2D1
:101F200070E0892DDF91CF911F910F91FF90EF907D
:101F3000DF90CF90BF90AF909F908F900C94AF0D9B
:101F4000DF91CF911F910F91FF90EF90DF90CF9095
:101F5000BF90AF909F908F900895CF93C62F61E070
:101F600070E08C2F0E94AF0D61E070E08C2F0E941A
:101F70000A0E8111F9CFCF91089590E0982F88270C
:101F800044E050E0845F9B4F0C94BB0D62E070E036
:101F90000C940A0ECF93DF93C82FD62F472F64E0FF
:101FA00070E00E94AF0D4D2F65E070E08C2FDF9147
:101FB000CF910C94AF0D462F62E070E00C94AF0D02
:101FC000CF93DF93C82FD62F472F60E170E00E9498
:101FD000AF0D4D2F61E170E08C2FDF91CF910C940C
:101FE000AF0DCF93C82F40E150E0682F80EF92E013
:101FF0000E94AD0F6FEF8C2FCF910C94DB0FEF92FF
:10200000FF921F93CF93DF9300D0CDB7DEB7182F89
:102010007A018FEF860F853048F5812F2A836983F7
:102020000E94F10F2A816981462F422B60E070E007
:10203000812F0E94AF0DE114F10411F0B7010AC025
:1020400060910003709101036F5F7F4F70930103F4
:1020500060930003812F0E94CA0F41E050E0612F7E
:1020600080EF92E00E94AD0F81E001C080E00F9010
:102070000F90DF91CF911F91FF90EF9008951F93E4
:10208000CF93DF93182FFB01EA0180818F3F51F43A
:1020900081818F3F91F482818F3F79F483818F3FDB
:1020A00061F41EC0811109C08181811106C0828145
:1020B000811103C08381882399F0209789F0BF01A3
:1020C000812F0E94BD0FBE01812F0E94E00F44E0CE
:1020D00050E0612F80EF92E00E94AD0F81E001C0DF
:1020E00080E0DF91CF911F91089548E050E0682F84
:1020F00080EF92E00C94AD0FDF92EF92FF920F937E
:102100001F93CF93DF93D82E8B01EA01413088E0F3
:10211000580710F0C0E0D8E06D2D80EF92E00E94EB
:102120002C0E7C0163E070E08D2D0E940A0E873139
:1021300011F08C3121F4EC16FD0670F302C0C0E002
:10214000D0E09E01A8016D2D80EF92E00E94EB0E81
:1021500040E250E06D2D80EF92E00E94AD0F8D2D9A
:102160000E94C60F84FD0DC063E070E08D2D0E94BB
:102170000A0E8111F4CF8D2D0E94F10F80E090E0C6
:1021800005C060E18D2D0E94DB0FCE01DF91CF9164
:102190001F910F91FF90EF90DF900895DF92EF92E3
:1021A000FF920F931F93CF93DF93D82E7B018A0169
:1021B000682F80EF92E00E94600EEC01009799F486
:1021C00063E070E08D2D0E940A0E843111F18823A6
:1021D00001F1C1E0D0E08C3111F4C0E0D0E0D19544
:1021E000C195D10916C0081719070CF4E8011C168F
:1021F0001D067CF400E09E01A7016D2D80EF92E0AA
:102200000E945D0F40E450E06D2D80EF92E00E944F
:10221000AD0FCE01DF91CF911F910F91FF90EF9005
:10222000DF9008950F93AB0101E021E030E0682FCB
:1022300080EF92E00E945D0F81E090E00F910895A1
:10224000BF92CF92DF92EF92FF920F931F93CF93A3
:10225000DF93B82E7B016A01E901682F80EF92E0DD
:102260000E942C0E8C179D0730F46B2D80EF92E0AE
:102270000E942C0EEC018E019601A7016B2D80EFC0
:1022800092E00E947C0ECE01DF91CF911F910F91C1
:10229000FF90EF90DF90CF90BF9008951F93CF9362
:1022A000DF93182FFB01EA018081811109C0818130
:1022B000811106C08281811103C08381882369F066
:1022C000209759F0BF01812F0E94BD0FBE01812FC1
:1022D0000E94E00F81E090E002C080E090E0DF919A
:1022E000CF911F910895CF93C82F40E250E0682FFF
:1022F00080EF92E00E94AD0F8C2F0E94C60F84FDEC
:102300000CC08C2F0E94C60F83FFF6CF68E18C2F84
:102310000E94DB0F80E090E006C060E18C2F0E94FD
:10232000DB0F81E090E0CF910895DC01ED91FC910D
:10233000008CF18DE02D09942DEA31E0FC01318310
:102340002083FB014189528963897489FC0142839E
:102350005383648375830895FC0185899689089564
:10236000FC01818D928D0895CF93DF931F92CDB79D
:10237000DEB76983DC01ED91FC910280F381E02DF1
:1023800041E050E0BE016F5F7F4F09950F90DF91F4
:10239000CF910895CF93DF93EC01898D9A8D892B8E
:1023A00041F0E881F9810680F781E02DCE010995A1
:1023B000F4CFDF91CF910895CF93DF93EC018C851B
:1023C000843061F00E94F10FEC85F0E0EE0FFF1F0A
:1023D000EE51FD4F1182108284E08C87DF91CF9106
:1023E0000895FC01108E178A6E5F7F4F84850C94D0
:1023F0004E11FC0184850C947311CF93DF93EC0193
:102400009A018F89988DAB01BC018C850E942011A7
:102410002F89388D280F391F388F2F8BDF91CF915F
:1024200008950F931F93CF93DF931F92CDB7DEB71D
:102430008C01FC01818D928D892B59F041E050E097
:10244000BE016F5F7F4F84850E94CE10181619065B
:102450001CF08FEF9FEF08C0F801818D928D0197DE
:10246000928F818F898190E00F90DF91CF911F91A2
:102470000F910895CF93DF93EC01898D9A8D00978A
:1024800019F48FEF9FEF10C04817590708F0AC01FF
:102490008C850E94CE10181619069CF7298D3A8D4E
:1024A000281B390B3A8F298FDF91CF910895CF9355
:1024B000DF931F92CDB7DEB7FC01218D328D232B28
:1024C00049F0BE016F5F7F4F84850E9412118981A0
:1024D00090E002C08FEF9FEF0F90DF91CF910895B2
:1024E0000F931F93CF93DF93CDB7DEB728970FB627
:1024F000F894DEBF0FBECDBF8C01DC01ED91FC91E5
:102500000284F385E02D0995F801648580EF92E05F
:102510000E94600E892B41F148E050E0BE016F5FE0
:102520007F4FD8011C968C910E94CE101816190668
:10253000ECF4BE016F5F7F4FC8010F960E946207E7
:102540008D8190E0982F88272E81820F911DF801B0
:10255000968B858B8F8190E0982F88272885820F16
:10256000911D928F818F02C080E090E028960FB677
:10257000F894DEBF0FBECDBFDF91CF911F910F91B9
:102580000895CF92DF92EF92FF920F931F93CF9314
:10259000DF93EC016B018C85843019F543E0E42E68
:1025A00044E0F42E00E010E0C7010E94EA0D811122
:1025B00002C00C8708C08831E1F30F5F1F4FF3940E
:1025C0000430110589F78C85843059F0DE86CD867C
:1025D0001A8E198E20E0A60162E00E94FF0F81E0B2
:1025E00001C080E0DF91CF911F910F91FF90EF909C
:1025F000DF90CF900895FC011382128248EE53E0E1
:1026000060E070E044835583668377838FED91E0CB
:102610009183808384E08487CF010F960C943C07DC
:10262000CF92DF92EF92FF920F931F93CF93DF939E
:10263000CDB7DEB7AF970FB6F894DEBF0FBECDBFF4
:102640007C018B016A01CE0101960E943C07CE01FC
:1026500009960E94FB12CE018A960E943C076AED01
:1026600072E0CE0184960E94270DBE016C5D7F4F03
:10267000CE0101960E947913AE01465D5F4FB8010D
:10268000CE0101960E94DE1581309105C1F4D7017B
:10269000ED91FC910088F189E02D8DEA91E09DA3F8
:1026A0008CA30CA51DA52EA53FA50EA31FA328A78F
:1026B00039A7A601BE016C5D7F4FC7010995AF9692
:1026C0000FB6F894DEBF0FBECDBFDF91CF911F9143
:1026D0000F91FF90EF90DF90CF9008950F9300E05F
:1026E00020E040E060E082E093E00E9446070F9126
:1026F0000895FB014281538164817581FC0142830D
:10270000538364837583178216820895CF93FB01E8
:1027100081918111FDCFFB0180E090E020E030E06D
:10272000CAE06191662309F12430310564F56E3207
:1027300071F48F3F910509F034F5DA01A20FB31F50
:1027400012968C932F5F3F4F80E090E0EACFDC0140
:10275000CA9FC001CB9F900D1124772767FD70950C
:1027600060537109860F971FDCCF8F3F910509F0E9
:1027700054F4243031053CF4FA01E20FF31F828354
:1027800081E090E002C080E090E0CF9108950F9347
:1027900000E020E040E060E088E093E00E9446072F
:1027A0000F910895AF92BF92CF92DF92EF92FF9276
:1027B0000F931F93CF93DF9300D01F92CDB7DEB757
:1027C0006C017B010E947206F601778366838601A5
:1027D000085F1F4FB6016A5F7F4F42E050E0C801BB
:1027E0000E94FD1181E090E09A83898342E050E0ED
:1027F000BE016F5F7F4FC8010E94FD1180E091E034
:102800009A83898342E050E0BE016F5F7F4FC80129
:102810000E94FD111A82198242E050E0BE016F5FF2
:102820007F4FC8010E94FD1142E050E0BE016F5F82
:102830007F4FC8010E94FD1142E050E0BE016F5F72
:102840007F4FC8010E94FD116701F6018081882336
:1028500011F1F7016F018191811115C05601AE1878
:10286000BF081A141B0494F4AB8241E050E0BE018F
:102870006D5F7F4FC8010E94FD11A501B701C8011E
:102880000E94FD1103C08E3229F7E8CF7601FFEFD9
:10289000EF1AFF0ADACF1B8241E050E0BE016D5F04
:1028A0007F4FC8010E94FD11E12CFF24F394FA82AE
:1028B000E98242E050E0BE016F5F7F4FC8010E9495
:1028C000FD11FA82E98242E050E0BE016F5F7F4F66
:1028D000C8010E94FD1181E090E00F900F900F90D1
:1028E000DF91CF911F910F91FF90EF90DF90CF90EC
:1028F000BF90AF9008954F925F926F927F928F92A8
:102900009F92AF92BF92CF92DF92EF92FF920F937E
:102910001F93CF93DF93CDB7DEB763970FB6F894CD
:10292000DEBF0FBECDBF7C015B016A010E94720653
:102930002B013C018701085F1F4F4501A12CB12CE1
:10294000C8010E9470121816190694F00E947206AF
:10295000641975098609970986169706A806B906A7
:10296000D0F062E370E080E090E00E94A106E8CF42
:10297000F7014281538164817581818D928DA38D90
:10298000B48D481759076A077B0741F4858D968DEA
:10299000C59721F406C08FEF9FEFF9C08EEF9FEF30
:1029A000F6C0C8010E94B0110C970CF4EEC04CE0C8
:1029B00050E0BE016F5F7F4FC8010E943A128B81C9
:1029C0009C819827892798279A8B898BF7014681C4
:1029D000578129813A814217530711F497FD06C0A8
:1029E000C8010E94CA118CEF9FEFD1C08F70927006
:1029F000892B31F0C8010E94CA118BEF9FEFC7C02D
:102A0000AF80B884BA24AB24BA24A114B10419F05D
:102A1000E12CF12C23C0C8010E94CA118AEF9FEF5C
:102A2000B6C041E050E0BE01635F7F4FC8010E9425
:102A30003A128D8581111BC08D858111F2CFC8019D
:102A40000E941112C8010E941112C8010E941112A5
:102A5000C8010E941112FFEFEF1AFF0A8D819E81BB
:102A6000982789279827E816F906D8F20AC08D8595
:102A70009FEF980F9D878823F9F2C8010E941112D9
:102A8000F6CFE12CF12C41E050E0BE016D5E7F4FAE
:102A9000C8010E943A128B89982F907C61F4882398
:102AA00071F08B899FEF980F9B8B882341F0C801B1
:102AB0000E941112F6CFC8010E9411121B8A8B8945
:102AC0008111E1CF42E050E0BE01615F7F4FC8015C
:102AD0000E943A1242E050E0BE01635F7F4FC8019E
:102AE0000E943A12C8010E941112C8010E941112DC
:102AF000C8010E941112C8010E94111242E050E068
:102B0000BE016F5E7F4FC8010E943A128F8598897F
:102B10008115914029F48D859E858115914019F08C
:102B2000812C912C16C089899A898115944031F0A5
:102B3000C8010E94CA1187EF9FEF29C0B6016E5FDE
:102B40007F4F44E050E0C8010E943A1281E090E0DB
:102B50001EC089899A8998278927982788169906F7
:102B600038F4C8010E9411122FEF821A920AF1CF95
:102B70008FEFE81AF80AEA14FB0409F084CFC801C1
:102B80000E94CA1186EF9FEF02C08DEF9FEF639600
:102B90000FB6F894DEBF0FBECDBFDF91CF911F916E
:102BA0000F91FF90EF90DF90CF90BF90AF909F90EC
:102BB0008F907F906F905F904F9008958F929F922B
:102BC000AF92BF92CF92DF92EF92FF920F931F933B
:102BD000CF93DF9300D000D000D0CDB7DEB78C010B
:102BE0005B016A010E9486134C01009709F05FC0E7
:102BF000F801428153816481758180910A0390912B
:102C00000B03A0910C03B0910D03481759076A07F5
:102C10007B0709F450C00E9472067801F8E0EF0EBD
:102C2000F11C6F7077277C5FC7010E94C112813051
:102C300009F045C08DEA91E09A838983F801828189
:102C40009381A481B5818B839C83AD83BE8345E34F
:102C500050E0BE016F5F7F4FC7010E94F111892BC9
:102C600019F4812C912C1FC0B501C8010E94D21308
:102C7000892BB9F3C7010E94F911892B91F333E035
:102C8000A32EB12CA60168E873E1C8010E947B1451
:102C90004C01F1E0AF1AB108A114B10421F08F3F4B
:102CA0002FEF920779F3C7010E94DC1108C0882436
:102CB0008394912C04C09EEF892E99249A94C40188
:102CC00026960FB6F894DEBF0FBECDBFDF91CF9131
:102CD0001F910F91FF90EF90DF90CF90BF90AF903A
:102CE0009F908F90089561E08AE00E94F20561E074
:102CF0008AE00E94B9058CB580618CBD8CB580647A
:102D00008CBD61E08DE00E94B90561E08BE00C9420
:102D1000B905A1E21A2EAA1BBB1BFD010DC0AA1FFB
:102D2000BB1FEE1FFF1FA217B307E407F50720F034
:102D3000A21BB30BE40BF50B661F771F881F991FAF
:102D40001A9469F760957095809590959B01AC01F8
:102D5000BD01CF010895EE0FFF1F0590F491E02D06
:102D60000994CF93DF938230910510F482E090E0D4
:102D7000E0911003F091110320E030E0A0E0B0E01A
:102D8000309739F14081518148175907B8F04817F9
:102D9000590771F482819381109729F013969C93BF
:102DA0008E9312972CC0909311038093100327C029
:102DB0002115310531F04217530718F0A901DB0145
:102DC00001C0EF019A01BD01DF010280F381E02D16
:102DD000D7CF21153105F9F0281B390B24303105E7
:102DE00080F48A819B816115710521F0FB01938339
:102DF000828304C09093110380931003FE013296E6
:102E000044C0FE01E20FF31F8193919322503109D8
:102E1000398328833AC020910E0330910F03232B6E
:102E200041F4209102013091030130930F0320936C
:102E30000E0320910001309101012115310541F46B
:102E40002DB73EB74091040150910501241B350B6D
:102E5000E0910E03F0910F03E217F307A0F42E1B8D
:102E60003F0B2817390778F0AC014E5F5F4F2417EE
:102E7000350748F04E0F5F1F50930F0340930E032A
:102E80008193919302C0E0E0F0E0CF01DF91CF9118
:102E90000895CF93DF93009709F487C0FC01329720
:102EA00013821282C0911003D0911103209781F4F4
:102EB00020813181280F391F80910E0390910F03DB
:102EC0008217930779F5F0930F03E0930E036DC01B
:102ED000DE0120E030E0AE17BF0750F412964D91AE
:102EE0005C9113979D014115510509F1DA01F3CF6A
:102EF000B383A28340815181840F951F8A179B075A
:102F000071F48D919C911197840F951F0296918376
:102F1000808312968D919C911397938382832115C0
:102F2000310529F4F0931103E09310033EC0D90159
:102F30001396FC93EE9312974D915D91A40FB51FDC
:102F4000EA17FB0779F480819181840F951F02961F
:102F5000D90111969C938E938281938113969C93B1
:102F60008E931297E0E0F0E08A819B81009719F040
:102F7000FE01EC01F9CFCE01029628813981820F42
:102F8000931F20910E0330910F032817390769F41E
:102F9000309729F4109211031092100302C013828B
:102FA0001282D0930F03C0930E03DF91CF91089547
:042FB000F894FFCFC3
:102FB400000012032000C0A8000BDEADBEEFFEED42
:102FC400000400064D5149736470037B226F6E2226
:102FD4003A7B2269636F6E223A22636972636C657D
:102FE400227D2C226F6666223A7B2269636F6E22F1
:102FF4003A22636972636C652D626C616E6B227D2B
:103004007D002F686F6D652F6163747561746F72D5
:10301400732F6C69676874732F76616C75657300C0
:1030240074657374436C69656E74002F686F6D65A5
:103034002F6163747561746F7273002F686F6D65AF
:103044002F6163747561746F72732F6C6967687430
:10305400730073657475702E000000000002070091
:10306400000000BD088907630890087508B20800CD
:10307400000000CF09040A1E0A290A470AE509E7E5
:103084000A6A0A430A530B940BFC0900000000B4BB
:1030940011FD11B01111125712CA11C112DC11F134
:1030A400111013F91170123A1295119C11AC110000
:00000001FF
